:020000040000FA
:100000000C94CE000C94F6000C94F6000C94F600C0
:100010000C94F6000C94F6000C94F6000C94F60088
:100020000C94F6000C94F6000C94A1030C940A04B2
:100030000C94F6000C94F6000C94F6000C94F60068
:100040000C94F6000C94F6000C94F6000C94F60058
:100050000C94F6000C94F6000C94F6000C944C06EC
:100060000C94F6000C94F6000C94F6000C94F60038
:100070000C94F6000C94F6000C94F6000C94F60028
:100080000C94F6000C94F6000C94F6000C94F60018
:100090000C94F6000C94F6000C94F6000C94F60008
:1000A0000C94F6000C94F6000C94F600000000008E
:1000B000240027002A002D003000080B0002020255
:1000C00000000904000001020200000524001001E4
:1000D0000524010101042402060524060001070588
:1000E000810310004009040100020A000000070516
:1000F00002024000000705830240000004030904D7
:1001000012010002EF0201409A2311800001010256
:1001100003014164616672756974004369726375B5
:10012000697420506C617967726F756E64000000AD
:100130000000250028002B002E00310004040404D8
:10014000040304050202020204030202020206067C
:100150000606060604040202020404040802011052
:1001600040804010204080408008020401804020F0
:100170001002011080102040402000000002000901
:100180000F0000030401000C00000000000000004C
:1001900000000000000000000000960611241FBEB1
:1001A000CFEFDAE0DEBFCDBF11E0A0E0B1E0E6EFD7
:1001B000FEE002C005900D92A632B107D9F721E00A
:1001C000A6E2B1E001C01D92A539B207E1F710E047
:1001D000CEECD0E004C02197FE010E947307CD3C15
:1001E000D107C9F70E94AB060C9479070C94000064
:1001F000E7E8F1E02491E8E6F1E03491E9E4F1E0A8
:100200009491992309F430C02223E9F021502F3032
:10021000D0F4E22FF0E0E15FFE4F0C9473073D0154
:1002200041011E013501390123012301230144014C
:100230004A014E015201580123015C0120918000C6
:100240002F7720938000E92FF0E0EE0FFF1FE25D93
:10025000FE4FA591B4919FB7F894EC91811132C0F3
:1002600030953E233C939FBF0895209180002F7DC1
:10027000E8CF20918000277FE4CF24B52F7724BDDD
:10028000E2CF24B52F7DFBCF209190002F772093D4
:100290009000D9CF209190002F7DF9CF2091900030
:1002A000277FF5CF2091C0002F772093C000CBCFC0
:1002B0002091C0002F7DF9CF2091C200277F20938D
:1002C000C200C1CF3E2BCECF90919401911103C0BB
:1002D0008FEF9FEF08954FB7F89492E09093E90065
:1002E0009091F200292F30E01216130614F421E049
:1002F00030E0232B29F084E6809393018091F10074
:10030000992339F02091F200211103C02BE62093AC
:10031000E8004FBF9923E1F290E008952FB7F894D9
:1003200083E08093E9009091E800892F807295FF27
:1003300004C09091F20080E4891B2FBF0895809142
:100340008B0181110DC082E08093870184E080934E
:10035000880110928A011092890181E080938B01BB
:1003600087E891E00895CF93DF931F92CDB7DEB772
:100370006983DC01ED91FC910280F381E02D41E085
:1003800050E0BE016F5F7F4F09950F90DF91CF91D5
:10039000089583E08093E9008091F200882319F0AA
:1003A0008AE38093E80008950E948E0190E008950A
:1003B000FC018485958597FD05C02FEF3FEF3587BC
:1003C000248708950C946401CF93DF93EC018C850E
:1003D0009D8597FF04C00E9464019D878C878C8552
:1003E0009D85DF91CF910895FC018485958597FDCA
:1003F0000BC09FB7F89482E08093E9008091F200EF
:100400009FBF90E0019608959FB7F89482E0809393
:10041000E9008091F2009FBF90E008954091310182
:100420005091320120912F01309130014217530732
:10043000B4F49091E8009570E1F39091E80092FD9A
:1004400019C08093F10080913101909132010196A1
:100450008F739927892B19F48EEF8093E800809190
:1004600031019091320101969093320180933101D4
:1004700081E0089580E00895EF92FF920F931F931B
:10048000CF93DF93F82E192FE62E042F81E0860FED
:10049000880F0E940E0283E00E940E02CF2DD12F02
:1004A000EC0EFD2EF11CCE15DF05B9F007FF13C0D1
:1004B000FE0184910E940E02182F80E00E940E021D
:1004C000812321968111EFCFDF91CF911F910F9161
:1004D000FF90EF9008958881EDCF81E0F5CFDF9216
:1004E000EF92FF920F931F93CF93DF93D82E8A0141
:1004F000EB017B01E40EF51ECE15DF0559F0D7FEAA
:1005000012C0FE0184910E940E0221968111F4CF47
:100510000FEF1FEFC801DF91CF911F910F91FF9057
:10052000EF90DF9008958881EECF0F931F93CF93C4
:10053000DF931F92CDB7DEB782E0898342E450E0BB
:100540006AEB70E080E80E946F020E949F01DC016C
:1005500012960D911C910115110589F0D801ED91AC
:10056000FC910280F381E02DBE016F5F7F4FC801D7
:10057000099597FD04C0F80100851185ECCF8981AC
:100580000F90DF91CF911F910F9108953FB7F8948D
:1005900080912B0190912C01A0912D01B0912E0101
:1005A00026B5A89B05C02F3F19F00196A11DB11DCE
:1005B0003FBFBA2FA92F982F8827BC01CD01620F0A
:1005C000711D811D911D43E0660F771F881F991FC4
:1005D0004A95D1F708958F929F92AF92BF92CF9292
:1005E000DF92EF92FF924B015C010E94C6026B0109
:1005F0007C010E94C6026C197D098E099F09683E24
:10060000734081059105A8F321E0821A9108A108A1
:10061000B10888EEC80E83E0D81EE11CF11C8114DD
:100620009104A104B10429F7FF90EF90DF90CF90DF
:10063000BF90AF909F908F9008958F929F92AF92AE
:10064000BF92CF92DF92EF92FF920F931F93CF93BF
:10065000DF936C017B018A0180910B01882309F4EF
:100660005BC080919401882309F456C080913601C3
:1006700080FF05C08091E00082608093E000E80187
:10068000B12C8AEFA82E93E0892E2AE3922E209790
:1006900011F4BB20D9F10E948E0181110AC0AA94E5
:1006A000AA20D1F161E070E080E090E00E94EB02CE
:1006B000EECF8C171D0611F00CF08C2F9FB7F8941D
:1006C0008092E9002091E80025FD02C09FBFDFCFA6
:1006D000282F30E0C21BD30BF701815020F041914D
:1006E0004093F100FACFE20EF31EBB2021F090926E
:1006F000E800B12CEBCF8091E80085FDE7CF909228
:10070000E800BB24B394209709F3F3CF84E68093E9
:100710003501101611063CF081E090E0F60193835C
:10072000828310E000E0C801DF91CF911F910F910B
:10073000FF90EF90DF90CF90BF90AF909F908F9001
:1007400008951F920F920FB60F9211248F939F93CB
:100750008091E1009091E100937F9093E10083FF0D
:100760000FC01092E90091E09093EB001092EC0022
:1007700092E39093ED001092940198E09093F00032
:1007800082FF1CC093E09093E9009091F2009923BE
:1007900019F09AE39093E80090913501992329F09C
:1007A0009091350191509093350190919301992347
:1007B00029F09091930191509093930184FF18C078
:1007C0008091E2008E7E81608093E2008091E10062
:1007D0008F7E8093E100809136018E7E80618093D0
:1007E00036019F918F910F900FBE0F901F9018951B
:1007F00080FFF7CF8091E2008E7E80618093E200DF
:100800008091E1008E7E8093E100809136018E7EA2
:100810008160E5CF1F920F920FB60F921124CF92F5
:10082000DF92EF92FF920F931F932F933F934F937B
:100830005F936F937F938F939F93AF93BF93EF9348
:10084000FF93CF93DF93CDB7DEB76C97DEBFCDBFFD
:100850001092E9008091E80083FF2FC089E0FE013B
:100860007596EE2EDF2E815029F09091F100908345
:100870003196F9CF84E68093930182EF8093E8006C
:100880008D8987FF39C09091E80090FFFCCF982FA9
:10089000907609F033C19E894F89588D2F89F88C45
:1008A000911131C0803861F5809134018093F1005D
:1008B0001092F1008EEF8093E8006C960FB6F894DA
:1008C000DEBF0FBECDBFDF91CF91FF91EF91BF9102
:1008D000AF919F918F917F916F915F914F913F91D8
:1008E0002F911F910F91FF90EF90DF90CF900F907D
:1008F0000FBE0F901F9018959EEF9093E800C7CF02
:100900001092F100D5CF913059F48111D3CF4130FD
:10091000510581F6809134018D7F80933401CACFD7
:10092000933049F48111C6CF4130510519F68091B9
:1009300034018260F2CF953041F48091E80080FF6D
:10094000FCCF20682093E300B5CF963009F0A8C013
:100950000B8D1C8D22E01092E90010923201109252
:100960003101F2122EC01092300110922F010E941C
:1009700095021F8299E09983FA8291E09E8390EA22
:1009800098879AEF99872091310130913201275F42
:100990003F4F3C832B838D831092E90010923201EC
:1009A000109231011093300100932F0149E050E083
:1009B000BE016F5F7F4F80E00E946F020E94950230
:1009C00079CF1093300100932F010E949F01DC0129
:1009D00012960D911C910115110509F457C1D8010A
:1009E000ED91FC910480F581E02D6E2D7D2DC801E7
:1009F0000995009709F045C1F80100851185EBCFF5
:100A0000F3E0FF120EC08F89882309F440C08230C2
:100A100061F440E862E18BE191E00E943C028111C7
:100A200049CF81E28093EB0048CF813029F440E840
:100A300068E082E191E0F1CF833099F70E949F0155
:100A4000DC011296ED90FC908E010F5F1F4F680144
:100A5000E114F10479F0D701ED91FC910680F78162
:100A6000E02DB801C7010995080F111DF701E084B9
:100A7000F184EECFD8011C92F60101900020E9F735
:100A80003197BF016C197D0940E0C601C6CF6CEFFC
:100A900070E0FB01449150E080E80E946F020ACFB1
:100AA000973009F4BECF983021F481E08093F100B3
:100AB00001CF993009F0FECE837009F0B2CFEDE09E
:100AC000F1E081E031E096E32191222371F08093FF
:100AD000E9003093EB00DF0111972C912093EC009B
:100AE0009093ED008F5F873079F78EE78093EA006F
:100AF0001092EA008F8980939401DCCE8B8D9C8DBF
:100B00001092E9001092320110923101909330015D
:100B100080932F01898D81119AC08E899D89913A88
:100B200049F4813209F07DCF47E050E064E071E0A4
:100B300080E0B3CF913209F074CF833269F48F89AA
:100B4000988DB0E0A0E08093000190930101A09304
:100B50000201B0930301AECE8032A9F48091E80087
:100B600082FFFCCF88E0E4E0F1E0815029F0909131
:100B7000F10090833196F9CF84E6809393018BEF57
:100B80008093E80097CE823209F094CE8F898093CB
:100B90000B01EEEFFFE7859194918B3F9C4D51F156
:100BA000E0E0F8E08091040190910501A091060138
:100BB000B0910701803B9440A105B105F1F480910B
:100BC0000B0180FD1AC0EE3F8AE0F80789F587E740
:100BD00097E791838083809160008093330188E15F
:100BE0009BE00FB6F894A895809360000FBE909399
:100BF000600060CEEEEFFAE0D5CF8081918187373B
:100C0000974709F057CEA89580916000886180933E
:100C100060008091330180936000EE3F2AE0F2078C
:100C200089F08091FE0A9091FF0A9183808342CEE1
:100C3000808191818737980751F29093FF0A8093C2
:100C4000FE0AC5CF1092FF0A1092FE0A33CE0E9410
:100C50009F01DC0112960D911C910115110509F4FB
:100C6000E0CED801ED91FC910190F081E02D6E2D48
:100C70007D2DC801099581111DCEF80100851185D2
:100C8000ECCF181619060CF415CECBCEF1E0FF12FE
:100C9000B7CE60E071E0FDCE1F920F920FB60F92BB
:100CA00011242F933F938F939F93AF93BF93809182
:100CB000270190912801A0912901B0912A0130913A
:100CC000260126E0230F2D3758F50296A11DB11DF0
:100CD000209326018093270190932801A093290156
:100CE000B0932A0180912B0190912C01A0912D01AC
:100CF000B0912E010196A11DB11D80932B019093FF
:100D00002C01A0932D01B0932E01BF91AF919F9123
:100D10008F913F912F910F900FBE0F901F901895BC
:100D200029E8230F0396A11DB11DD2CFE7E3F1E01F
:100D30001382128288EE93E0A0E0B0E08483958372
:100D4000A683B78387E191E0918380838FEF9FEF44
:100D5000958784870895789484B5826084BD84B52E
:100D6000816084BD85B5826085BD85B5816085BDA6
:100D700080916E00816080936E001092810080915E
:100D800081008260809381008091810081608093E6
:100D9000810080918000816080938000809191002B
:100DA0008260809391008091910081608093910096
:100DB000809190008160809390008091C100846058
:100DC0008093C1008091C10082608093C1008091B6
:100DD000C10081608093C1008091C30081608093D5
:100DE000C3008091C00082608093C0008091C200E7
:100DF00081608093C20080917A00846080937A0041
:100E000080917A00826080937A0080917A008E7F50
:100E100080937A0080917A00806880937A001092A3
:100E2000940110923401109236018091D7008160B4
:100E30008093D70080EA8093D80089B58F7E89BDE2
:100E400089B5826089BD09B400FEFDCF61E070E024
:100E500080E090E00E94EB028091D8008F7C80615E
:100E60008093D8008091E000807F8093E0008091A3
:100E7000E1008E7E8093E1008DE08093E200E8E661
:100E8000F1E02491E9E4F1E08491882399F090E085
:100E9000880F991FFC01E455FF4FA591B491FC0107
:100EA000E25DFE4F859194918FB7F894EC91E22B1F
:100EB000EC938FBFC0E0D0E081E00E94F80068EEC4
:100EC00073E080E090E00E94EB0280E00E94F80076
:100ED00060ED77E080E090E00E94EB02209761F304
:100EE0000E940000E9CFEE0FFF1F0590F491E02D66
:100EF0000994F894FFCFFFFFFFFF00E1000000001E
:100F0000000000C1808100000000000000B3011D4E
:0C0F100003D401C901F401D801E4010080
:1070000055C000006EC000006CC000006AC00000E7
:1070100068C0000066C0000064C0000062C00000DC
:1070200060C000005EC00000B2C400005AC0000092
:1070300058C0000056C0000054C0000052C00000FC
:1070400050C00000D7C000004CC000004AC0000083
:1070500048C0000046C0000044C0000042C000001C
:1070600040C000003EC000003CC000003AC000002C
:1070700038C0000036C0000034C0000032C000003C
:1070800030C000002EC000002CC000002AC000004C
:1070900028C0000026C0000024C0000022C000005C
:1070A00020C000001EC000001CC0000011241FBE34
:1070B000CFEFDAE0DEBFCDBF11E0A0E0B1E0E0EB62
:1070C000FEE702C005900D92A43DB107D9F711E08B
:1070D000A4EDB1E001C01D92AA3EB107E1F755D37E
:1070E000E5C68ECF84E08093E9000DC08091E80072
:1070F0008B778093E80003C08EB3882359F080918A
:10710000E80082FFF9CF8091E80085FFEFCF809102
:10711000F100089580E0089593E09093E900909144
:10712000E80095FF09C08093F10084E690E0909319
:10713000D9018093D80108959091E8009E779093AB
:10714000E80003C09EB3992329F09091E80090FFD6
:10715000F9CFE9CF0895F89410926F001092810052
:10716000109285001092840081E085BF15BE47987B
:107170000C94000008958091DE019091DF0101964A
:107180009093DF018093DE01292F97FF03C03EEF2C
:10719000391B232F220F281710F447980895479A78
:1071A000089584B7877F84BF88E10FB6F8948093F1
:1071B0006000109260000FBE90E880E00FB6F89477
:1071C00090936100809361000FBE81E085BF82E0F3
:1071D00085BF3F9AE1E6F0E09083108247981092D5
:1071E00089009DE79093880080936F0083E08093EF
:1071F0008100B5C31F920F920FB60F9211242F93E7
:107200008F939F93EF93FF931092850010928400C9
:107210008091D8019091D901009729F0019790931E
:10722000D9018093D8018091D6019091D701009720
:1072300029F001979093D7018093D601E0E0F0E028
:1072400085919491019649F08091D4019091D50156
:1072500001969093D5018093D401FF91EF919F9176
:107260008F912F910F900FBE0F901F90189542E0B5
:1072700061EC82E007D342E161E883E003D342E1BD
:1072800060E884E0FFC28091E201982F9F779132FD
:1072900039F59091E301903291F0913209F5813AFC
:1072A000F9F48091E800877F8093E80067E070E060
:1072B00083E091E01AD48091E8008B770FC081328F
:1072C00079F48091E800877F8093E80067E070E0C0
:1072D00083E091E067D48091E8008E778093E800A6
:1072E00008954F925F926F927F928F929F92AF928A
:1072F000BF92CF92DF92EF92FF920F931F93CF93A3
:10730000DF9384E08093E9008091E80082FF2CC243
:1073100084E690E09093D7018093D601E3DE082FB6
:10732000853481F48CE195E29093D5018093D4016A
:1073300007B600FCFDCFF999FECF81E1809357009D
:10734000E89503C0843521F4CDDE8DE0E5DEE3C1B0
:107350008C34D9F3803509F4F8CF843721F484E4F0
:10736000DBDE80E0F3CF813611F489E5EFCF8134A5
:1073700081F4B8DEC82FB6DE90E0880F991F3C2F4D
:10738000330F20E0822B932BAA2797FDA095BA2FCD
:1073900096C1803711F483E5D9CF833549F4CAEC1F
:1073A000D1E08991B9DE21E0C13DD207D1F7B3C167
:1073B000863521F481E3B0DE80E3C8CF833731F432
:1073C00087E8AADE85E9A8DE8EE1C0CF8536B9F46C
:1073D000E0E0F0E083E095E080935700E89507B6A1
:1073E00000FCFDCF90935700E89507B600FCFDCF59
:1073F000E058FF4FE11520E7F20771F7A6CF82377B
:1074000019F4E1E0F0E00EC0863419F4E0E0F0E0B9
:1074100009C08E3419F4E3E0F0E004C0813539F49A
:10742000E2E0F0E089E08093570084918FCF8236CC
:1074300031F489E571DE80E06FDE80E887CF823449
:1074400019F0873609F0D1C01092D5011092D401FD
:1074500049DEC82E47DED82E45DE182F85548230EF
:1074600010F08FE373CFDC2D80E0C82FCD29109270
:107470006F00073609F041C081E180935700E8951D
:10748000B12C01E037C0C090DA01D090DB01E09070
:10749000DC01F090DD011634B9F4EB2DF0E0EC29BD
:1074A000FD29849139DEBB2069F0E2E0CE0ED11CCB
:1074B000E11CF11CC092DA01D092DB01E092DC0108
:1074C000F092DD01B02615C0D701C601B695A7958B
:1074D00097958795D5D420DEF2E0CF0ED11CE11C24
:1074E000F11CC092DA01D092DB01E092DC01F09253
:1074F000DD012197209739F674C08090DA019090D1
:10750000DB01A090DC01B090DD01163409F057C01A
:1075100083E0F40180935700E89507B600FCFDCFA7
:107520004EC0163439F5DD2009F14090DA01509053
:10753000DB016090DC017090DD01D4DDF82EE12CE0
:1075400097012C29F201090100935700E8951124B5
:10755000F2E04F0E511C611C711C4092DA015092F6
:10756000DB016092DC017092DD0102C0BBDDC82E40
:10757000D02623C0B7DD682F8091DA019091DB011E
:10758000A091DC01B091DD01B695A79597958795FF
:107590007FD44091DA015091DB016091DC01709160
:1075A000DD014E5F5F4F6F4F7F4F4093DA01509385
:1075B000DB016093DC017093DD01219703C0C12CD6
:1075C000D12C01E0209709F0ACCF163441F485E0CE
:1075D000F40180935700E89507B600FCFDCF8DE0DD
:1075E0009BDD82E080936F0096C0833471F4C0917C
:1075F000DA01D091DB0176DD90E021E0FE010C01A3
:1076000020935700E8951124A0CE833611F5C09041
:10761000DA01D090DB01E090DC01F090DD0162DD69
:10762000B701A601416090E021E0FA010C0120932E
:107630005700E8951124F2E0CF0ED11CE11CF11C9B
:10764000C092DA01D092DB01E092DC01F092DD0120
:107650007CCE8D3661F4E091DA01F091DB0185E0BA
:1076600080935700E89507B600FCFDCF6ECE8235BB
:1076700051F4E091DA01F091DB01C591D4918D2FA5
:107680004BDD8C2F63CE843419F52CDD682F80916F
:10769000DA019091DB01A091DC01B091DD01B6959A
:1076A000A79597958795F4D38091DA019091DB01A6
:1076B000A091DC01B091DD010296A11DB11D809366
:1076C000DA019093DB01A093DC01B093DD013DCEA4
:1076D0008436F1F4C090DA01D090DB01E090DC0157
:1076E000F090DD01D701C601B695A79597958795CE
:1076F000C7D312DD22E0C20ED11CE11CF11CC092E6
:10770000DA01D092DB01E092DC01F092DD0103C0EE
:107710008B3109F0A6CE83E08093E9009091E800D8
:107720008091E8008E778093E80095FD11C08091EC
:10773000E80080FD04C08EB38111F9CF15C080919F
:10774000E8008E778093E80003C08EB3882361F051
:107750008091E80080FFF9CF84E08093E900809178
:10776000E8008B778093E800DF91CF911F910F9114
:10777000FF90EF90DF90CF90BF90AF909F908F9051
:107780007F906F905F904F90089580910008909146
:107790000108109201081092000844B714BE28E1B5
:1077A0000FB6F89420936000109260000FBEE0E0E6
:1077B000F0E0259134912F3F3F4F79F040FF02C018
:1077C000CADC0BC041FD09C0483039F420910001EA
:1077D000309101018217930799F7E3DC78941092B6
:1077E000D5011092D4010CC07CDD39D38091D40135
:1077F0009091D5018131974210F010920201BBDCCB
:10780000809102018111F0CF8091E000816080932E
:10781000E000A1DC80E090E00895292F30E03327DC
:107820002230310539F02330310549F0213031055E
:1078300089F00BC02EE330E08AE791E01EC0882378
:1078400071F0813089F08230A1F020E030E080E0FA
:1078500090E013C022E130E088EB91E00EC024E01C
:1078600030E086E791E009C022E230E08CE391E06D
:1078700004C028E130E08AE091E0FA01918380833E
:10788000C90108958093E900EBEEF0E0808181600A
:107890008083EDEEF0E010826093EC0040838091F5
:1078A000EE00881F8827881F08958091E20187FDD8
:1078B00005C08091E80080FF0DC010C08091E800F5
:1078C00082FD04C08EB38111F9CF08958091E80044
:1078D0008B7707C08EB38111ECCF08958091E800BB
:1078E0008E778093E80008950F931F93CF93DF93D3
:1078F00041D048D0C8EDD0E088818F7788838881D7
:107900008068888388818F7D888319BC1EBA109215
:10791000E00100EE10E0F80180818B7F8083888198
:107920008160888342E060E080E0ACDFE1EEF0E07F
:1079300080818E7F8083E2EEF0E0808181608083B1
:10794000808188608083F80180818E7F8083888138
:1079500080618883DF91CF911F910F910895E7EDAA
:10796000F0E08081816080838AE482BF81E080933F
:10797000E101BACFE8EDF0E080818E7F8083109244
:10798000E20008951092DA001092E10008951F922B
:107990000F920FB60F9211242F933F934F935F9343
:1079A0006F937F938F939F93AF93BF93EF93FF93C7
:1079B0008091DA0080FF19C08091D80080FF15C047
:1079C0008091DA008E7F8093DA008091D90019BC13
:1079D00080FF09C082E089BD09B400FEFDCF81E0CF
:1079E0008EBB3CD202C01EBA39D28091E10080FF2A
:1079F00017C08091E20080FF13C08091E2008E7F6B
:107A00008093E2008091E20080618093E2008091A7
:107A1000D80080628093D80019BC85E08EBB1ED24E
:107A20008091E10084FF2BC08091E20084FF27C099
:107A300019BC82E089BD09B400FEFDCF8091D80059
:107A40008F7D8093D8008091E1008F7E8093E1004C
:107A50008091E2008F7E8093E2008091E20081605D
:107A60008093E2008091E001811104C08091E300E5
:107A700087FF02C084E001C081E08EBBEFD180911E
:107A8000E10083FF21C08091E20083FF1DC080914F
:107A9000E100877F8093E10082E08EBB1092E001DD
:107AA0008091E1008E7F8093E1008091E2008E7FE3
:107AB0008093E2008091E20080618093E20042E0E6
:107AC00060E080E0DFDECAD1FF91EF91BF91AF911E
:107AD0009F918F917F916F915F914F913F912F91E6
:107AE0000F900FBE0F901F9018954091E801509194
:107AF000E9014617570748F06115710539F44091BF
:107B0000E8004E774093E80001C0BA01FC0140E074
:107B100032C08EB3882309F441C0853009F440C0D7
:107B20008091E80083FD38C08091E80082FD2EC07E
:107B30008091E80080FF1FC09091F3008091F200D7
:107B4000392F20E0A901482BCA0106C0419140937A
:107B5000F1006150710901966115710519F08830C5
:107B60009105A0F341E0089709F040E08091E8001A
:107B70008E778093E8006115710559F64111C9CFE0
:107B800005C08EB3882351F0853051F08091E80014
:107B900082FFF7CF80E0089581E0089582E00895A4
:107BA00083E008956115710529F44091E8004B7751
:107BB0004093E800AC0127C08EB38823B1F1853033
:107BC00071F18091E80083FD2CC08091E80082FF74
:107BD000F3CFFA0107C08091F1008193AF016150AA
:107BE000710961F0AF019091F3008091F200392F9B
:107BF00020E0D901A82BCD01892B69F78091E800FD
:107C00008B778093E80061157105B1F68091E800EB
:107C100080FD09C08EB3882341F08530B9F783E039
:107C2000089581E0089580E0089582E00895EF923C
:107C3000FF920F931F93CF93DF9300D0CDB7DEB7A2
:107C4000E2EEF1E08091F100819381E0EA3EF807F5
:107C5000C9F719DB8091E80083FFE9C08091E20158
:107C60009091E301953009F46FC038F4913071F1CF
:107C700070F0933009F0DBC029C0983009F4AAC035
:107C8000993009F4B9C0963009F0D1C083C080386A
:107C900009F4CDC0823809F0CAC08091E601909104
:107CA000E701877099278093E9009091EB0010928B
:107CB000E9008091E800877F8093E80095FB8827A2
:107CC00080F98093F1001092F1008FC0882319F0A1
:107CD000823009F0ACC08F71823009F0A8C0809169
:107CE000E40181112BC08091E6019091E70187703A
:107CF0009927009709F49BC08093E9002091EB003D
:107D000020FF1CC02091E301233021F48091EB007F
:107D1000806212C09091EB0090619093EB0021E0A3
:107D200030E001C0220F8A95EAF72093EA00109212
:107D3000EA008091EB0088608093EB001092E900EC
:107D40008091E800877F54C0811171C00091E401E7
:107D50001091E5010F771127E02EFFB6F89480917E
:107D6000E800877F8093E800A0DD8091E80080FF35
:107D7000FCCF8091E3008078802B8093E3008068C3
:107D80008093E300EE2011F083E001C082E08EBB1F
:107D9000FFBE4DC08058823008F049C0AE014F5F31
:107DA0005F4F6091E6018091E4019091E50135DD3E
:107DB000009709F43CC02091E800277F2093E80059
:107DC000BC0189819A8191DE8091E8008B77809354
:107DD000E8002DC0803859F58091E800877F8093B6
:107DE000E8008091E0018093F1008091E8008E77B7
:107DF0008093E8005ADD1BC0811119C09091E40105
:107E00009230A8F48091E800877F8093E8009093F7
:107E1000E0014BDD8091E001811104C08091E3001D
:107E200087FF02C084E001C081E08EBB20DA809130
:107E3000E80083FF0AC08091EB0080628093EB0032
:107E40008091E800877F8093E8000F900F90DF918A
:107E5000CF911F910F91FF90EF9008950895CF93C8
:107E60008EB3882359F0C091E900C7701092E900E1
:107E70008091E80083FDDBDEC093E900CF91089597
:107E8000F999FECF92BD81BDF89A992780B50895E2
:107E9000262FF999FECF1FBA92BD81BD20BD0FB626
:107EA000F894FA9AF99A0FBE01960895F894FFCFC4
:107EB000777701000000000000081803410064000B
:107EC00061006600720075006900740020004900BE
:107ED0006E00640075007300740072006900650034
:107EE000730020004C004C004300000022034100BE
:107EF0006400610066007200750069007400200073
:107F0000430069007200630075006900740020007E
:107F100050006C0061007900670072006F0075000E
:107F20006E00640000000403090409023E0002011F
:107F30000080320904000001020201000524001043
:107F40000104240204052406000107058203080039
:107F5000FF09040100020A000000070504021000E6
:107F60000107058302100001120110010200000840
:107F70009A23110001000201000143415445524976
:047F80004E4100006E
:00000001FF
